:100000000C9462000C948A000C948A000C948A0070
:100010000C948A000C948A000C948A000C948A0038
:100020000C948A000C948A000C948A000C948A0028
:100030000C948A000C948A000C948A000C948A0018
:100040000C941B010C948A000C948A000C948A0076
:100050000C948A000C948A000C948A000C948A00F8
:100060000C948A000C948A000000000024002700F1
:100070002A0000000000250028002B0000000000DE
:1000800023002600290004040404040404040202DA
:100090000202020203030303030301020408102007
:1000A0004080010204081020010204081020000012
:1000B0000007000201000003040600000000000029
:1000C0000000FD0011241FBECFEFD4E0DEBFCDBF86
:1000D00011E0A0E0B1E0E8E4F5E002C005900D9287
:1000E000A030B107D9F711E0A0E0B1E001C01D9246
:1000F000AF30B107E1F710E0C4ECD0E004C02297C4
:10010000FE010E949E02C23CD107C9F70E9416015F
:100110000C94A2020C9400004F925F926F927F9217
:100120008F929F92AF92BF92CF92DF92EF92FF9207
:100130000F931F93CF93DF934C018B01C42EFC01CF
:10014000B18020E030E060E271EA87E090E0A90150
:1001500098010E945F02E901CB9CC02C1124DD2490
:10016000EE24FF24C701B60128EE33E040E050E062
:100170000E9440022B013C01CE01880F991F5C01B7
:10018000CC24B7FCC094DC2CEE24FF24870114C0DF
:10019000F401808161E00E94F301CE010E948B0195
:1001A000F401808160E00E94F301CE010E948B0186
:1001B000EA0CFB1C0C1D1D1DE414F50406051705B7
:1001C0003CF3DF91CF911F910F91FF90EF90DF9063
:1001D000CF90BF90AF909F908F907F906F905F90E7
:1001E0004F900895FC01862F608328EC30E0328325
:1001F000218361E00E94D301089580E091E069E0ED
:100200000E94F20008950F931F9300E011E0C801CF
:1002100068EB71E041E00E948C00C80160E773E088
:1002200042E00E948C001F910F9108950E94990155
:100230000E940301FDCF1F920F920FB60F9211245F
:100240002F938F939F93AF93BF93809103019091CE
:100250000401A0910501B09106010196A11DB11DF7
:100260008093030190930401A0930501B0930601CC
:100270008091070190910801A0910901B0910A01B4
:100280008050904CAF4FBF4F80930701909308016F
:10029000A0930901B0930A0127C0809107019091B2
:1002A0000801A0910901B0910A0180589E43A04025
:1002B000B0408093070190930801A0930901B09387
:1002C0000A0180910B0190910C01A0910D01B09158
:1002D0000E010196A11DB11D80930B0190930C019D
:1002E000A0930D01B0930E01809107019091080138
:1002F000A0910901B0910A0181589E43A040B040ED
:1003000060F6BF91AF919F918F912F910F900FBE8B
:100310000F901F901895019759F0FC01EE0FFF1FE9
:10032000EE0FFF1F32978FB7F8943197F1F78FBF19
:100330000895789484B5826084BD84B5816084BD5D
:1003400085B5826085BD85B5816085BDEEE6F0E04E
:10035000808181608083E1E8F0E080818260808339
:10036000808181608083E0E8F0E08081816080832B
:10037000E1EBF0E0808184608083E0EBF0E080815D
:1003800081608083EAE7F0E08081846080838081FF
:1003900082608083808181608083808180688083A7
:1003A0001092C1000895282F30E0C90186569F4F52
:1003B000FC0194912A573F4FF9018491882391F0D1
:1003C000E82FF0E0EE0FFF1FE859FF4FA591B49121
:1003D000662329F48C91909589238C9308958C91B0
:1003E000892B8C930895482F50E0CA0182559F4F66
:1003F000FC012491CA0186569F4FFC0194914A57F3
:100400005F4FFA0134913323D1F1222331F12330AC
:1004100021F4809180008F7705C0243031F48091E1
:1004200080008F7D8093800018C0213019F484B53E
:100430008F7704C0223021F484B58F7D84BD0DC038
:10044000263021F48091B0008F7705C0273029F441
:100450008091B0008F7D8093B000E32FF0E0EE0F2D
:10046000FF1FEE58FF4FA591B491662329F48C919C
:10047000909589238C9308958C91892B8C93089562
:10048000629FD001739FF001829FE00DF11D649F78
:10049000E00DF11D929FF00D839FF00D749FF00D04
:1004A000659FF00D9927729FB00DE11DF91F639FA5
:1004B000B00DE11DF91FBD01CF011124089597FB77
:1004C000092E05260ED057FD04D014D00AD0001CEA
:1004D00038F450954095309521953F4F4F4F5F4FE1
:1004E0000895F6F790958095709561957F4F8F4FA1
:1004F0009F4F0895A1E21A2EAA1BBB1BFD010DC040
:10050000AA1FBB1FEE1FFF1FA217B307E407F507C3
:1005100020F0A21BB30BE40BF50B661F771F881F9F
:10052000991F1A9469F760957095809590959B0135
:10053000AC01BD01CF010895EE0FFF1F0590F491AE
:08054000E02D0994F894FFCFAF
:00000001FF
